{
  "contractName": "CryptoWhale",
  "abi": [
    {
      "inputs": [],
      "stateMutability": "nonpayable",
      "type": "constructor"
    },
    {
      "anonymous": false,
      "inputs": [
        {
          "indexed": true,
          "internalType": "address",
          "name": "_owner",
          "type": "address"
        },
        {
          "indexed": true,
          "internalType": "address",
          "name": "_approved",
          "type": "address"
        },
        {
          "indexed": true,
          "internalType": "uint256",
          "name": "_tokenId",
          "type": "uint256"
        }
      ],
      "name": "Approval",
      "type": "event"
    },
    {
      "anonymous": false,
      "inputs": [
        {
          "indexed": true,
          "internalType": "address",
          "name": "_from",
          "type": "address"
        },
        {
          "indexed": true,
          "internalType": "address",
          "name": "_to",
          "type": "address"
        },
        {
          "indexed": true,
          "internalType": "uint256",
          "name": "_tokenId",
          "type": "uint256"
        }
      ],
      "name": "Transfer",
      "type": "event"
    },
    {
      "inputs": [
        {
          "internalType": "address",
          "name": "_owner",
          "type": "address"
        }
      ],
      "name": "balanceOf",
      "outputs": [
        {
          "internalType": "uint256",
          "name": "",
          "type": "uint256"
        }
      ],
      "stateMutability": "view",
      "type": "function",
      "constant": true
    },
    {
      "inputs": [
        {
          "internalType": "uint256",
          "name": "",
          "type": "uint256"
        }
      ],
      "name": "cryptoWhales",
      "outputs": [
        {
          "internalType": "string",
          "name": "",
          "type": "string"
        }
      ],
      "stateMutability": "view",
      "type": "function",
      "constant": true
    },
    {
      "inputs": [],
      "name": "name",
      "outputs": [
        {
          "internalType": "string",
          "name": "",
          "type": "string"
        }
      ],
      "stateMutability": "view",
      "type": "function",
      "constant": true
    },
    {
      "inputs": [
        {
          "internalType": "uint256",
          "name": "_tokenId",
          "type": "uint256"
        }
      ],
      "name": "ownerOf",
      "outputs": [
        {
          "internalType": "address",
          "name": "",
          "type": "address"
        }
      ],
      "stateMutability": "view",
      "type": "function",
      "constant": true
    },
    {
      "inputs": [
        {
          "internalType": "bytes4",
          "name": "interfaceID",
          "type": "bytes4"
        }
      ],
      "name": "supportsInterface",
      "outputs": [
        {
          "internalType": "bool",
          "name": "",
          "type": "bool"
        }
      ],
      "stateMutability": "view",
      "type": "function",
      "constant": true
    },
    {
      "inputs": [],
      "name": "symbol",
      "outputs": [
        {
          "internalType": "string",
          "name": "",
          "type": "string"
        }
      ],
      "stateMutability": "view",
      "type": "function",
      "constant": true
    },
    {
      "inputs": [
        {
          "internalType": "uint256",
          "name": "index",
          "type": "uint256"
        }
      ],
      "name": "tokenByIndex",
      "outputs": [
        {
          "internalType": "uint256",
          "name": "",
          "type": "uint256"
        }
      ],
      "stateMutability": "view",
      "type": "function",
      "constant": true
    },
    {
      "inputs": [
        {
          "internalType": "address",
          "name": "owner",
          "type": "address"
        },
        {
          "internalType": "uint256",
          "name": "index",
          "type": "uint256"
        }
      ],
      "name": "tokenOfOwnerByIndex",
      "outputs": [
        {
          "internalType": "uint256",
          "name": "",
          "type": "uint256"
        }
      ],
      "stateMutability": "view",
      "type": "function",
      "constant": true
    },
    {
      "inputs": [],
      "name": "totalSupply",
      "outputs": [
        {
          "internalType": "uint256",
          "name": "",
          "type": "uint256"
        }
      ],
      "stateMutability": "view",
      "type": "function",
      "constant": true
    },
    {
      "inputs": [
        {
          "internalType": "address",
          "name": "_from",
          "type": "address"
        },
        {
          "internalType": "address",
          "name": "_to",
          "type": "address"
        },
        {
          "internalType": "uint256",
          "name": "_tokenId",
          "type": "uint256"
        }
      ],
      "name": "transferFrom",
      "outputs": [],
      "stateMutability": "nonpayable",
      "type": "function"
    },
    {
      "inputs": [
        {
          "internalType": "string",
          "name": "_cryptoWhale",
          "type": "string"
        }
      ],
      "name": "mint",
      "outputs": [],
      "stateMutability": "nonpayable",
      "type": "function"
    }
  ],
  "bytecode": "0x60806040523480156200001157600080fd5b506040518060400160405280600b81526020017f43727970746f5768616c650000000000000000000000000000000000000000008152506040518060400160405280600681526020017f435748414c4500000000000000000000000000000000000000000000000000008152508181620000b17f01ffc9a7a5cef8baa21ed3c5c0d7e23accb804b619e9333b597f47a0d84076e2620001b560201b60201c565b620001047f13b182f4c0e5b2efbac0efe6cf6d756c8b89f4b79c5707a043ed9ea740574ee97f7feaf19471f34a12a7eaf32d5f3090aa2260ea8624dc8a138e74e0bf0f62307618620001b560201b60201c565b81600190805190602001906200011c9291906200028d565b508060029080519060200190620001359291906200028d565b505050620001ad7f22c82707ba960a14c7592ffb6b8cfaa073fed0048a84cc7fa41f6b5bd8e7f2e47f3a6eb71757dfc6e784c1459d26270140c2c147d95ca985c80026fc5301c3eca17f8a7e378434598edc36d108689a030cbc9d7d465de4f74c71bae1028eed6a881b1818620001b560201b60201c565b505062000425565b63ffffffff60e01b817bffffffffffffffffffffffffffffffffffffffffffffffffffffffff1916141562000221576040517f08c379a000000000000000000000000000000000000000000000000000000000815260040162000218906200039e565b60405180910390fd5b6001600080837bffffffffffffffffffffffffffffffffffffffffffffffffffffffff19167bffffffffffffffffffffffffffffffffffffffffffffffffffffffff1916815260200190815260200160002060006101000a81548160ff02191690831515021790555050565b8280546200029b90620003ef565b90600052602060002090601f016020900481019282620002bf57600085556200030b565b82601f10620002da57805160ff19168380011785556200030b565b828001600101855582156200030b579182015b828111156200030a578251825591602001919060010190620002ed565b5b5090506200031a91906200031e565b5090565b5b80821115620003395760008160009055506001016200031f565b5090565b600082825260208201905092915050565b7f496e76616c696420496e74657266616365205265717565737400000000000000600082015250565b6000620003866019836200033d565b915062000393826200034e565b602082019050919050565b60006020820190508181036000830152620003b98162000377565b9050919050565b7f4e487b7100000000000000000000000000000000000000000000000000000000600052602260045260246000fd5b600060028204905060018216806200040857607f821691505b602082108114156200041f576200041e620003c0565b5b50919050565b61186580620004356000396000f3fe608060405234801561001057600080fd5b50600436106100a95760003560e01c80634f6ccce7116100715780634f6ccce7146101665780636352211e1461019657806370a08231146101c657806395d89b41146101f6578063b97e5f0014610214578063d85d3d2714610244576100a9565b806301ffc9a7146100ae57806306fdde03146100de57806318160ddd146100fc57806323b872dd1461011a5780632f745c5914610136575b600080fd5b6100c860048036038101906100c39190610e7a565b610260565b6040516100d59190610ec2565b60405180910390f35b6100e66102c7565b6040516100f39190610f76565b60405180910390f35b610104610359565b6040516101119190610fb1565b60405180910390f35b610134600480360381019061012f9190611056565b610366565b005b610150600480360381019061014b91906110a9565b610376565b60405161015d9190610fb1565b60405180910390f35b610180600480360381019061017b91906110e9565b610497565b60405161018d9190610fb1565b60405180910390f35b6101b060048036038101906101ab91906110e9565b610508565b6040516101bd9190611125565b60405180910390f35b6101e060048036038101906101db9190611140565b6105ba565b6040516101ed9190610fb1565b60405180910390f35b6101fe610672565b60405161020b9190610f76565b60405180910390f35b61022e600480360381019061022991906110e9565b610704565b60405161023b9190610f76565b60405180910390f35b61025e600480360381019061025991906112a2565b6107b0565b005b6000806000837bffffffffffffffffffffffffffffffffffffffffffffffffffffffff19167bffffffffffffffffffffffffffffffffffffffffffffffffffffffff1916815260200190815260200160002060009054906101000a900460ff169050919050565b6060600180546102d69061131a565b80601f01602080910402602001604051908101604052809291908181526020018280546103029061131a565b801561034f5780601f106103245761010080835404028352916020019161034f565b820191906000526020600020905b81548152906001019060200180831161033257829003601f168201915b5050505050905090565b6000600680549050905090565b61037183838361087d565b505050565b60003073ffffffffffffffffffffffffffffffffffffffff166370a08231846040518263ffffffff1660e01b81526004016103b19190611125565b602060405180830381865afa1580156103ce573d6000803e3d6000fd5b505050506040513d601f19601f820116820180604052508101906103f29190611361565b8210610433576040517f08c379a000000000000000000000000000000000000000000000000000000000815260040161042a906113da565b60405180910390fd5b600860008473ffffffffffffffffffffffffffffffffffffffff1673ffffffffffffffffffffffffffffffffffffffff1681526020019081526020016000208281548110610484576104836113fa565b5b9060005260206000200154905092915050565b60006104a1610359565b82106104e2576040517f08c379a00000000000000000000000000000000000000000000000000000000081526004016104d990611475565b60405180910390fd5b600682815481106104f6576104f56113fa565b5b90600052602060002001549050919050565b6000806003600084815260200190815260200160002060009054906101000a900473ffffffffffffffffffffffffffffffffffffffff169050600073ffffffffffffffffffffffffffffffffffffffff168173ffffffffffffffffffffffffffffffffffffffff1614156105b1576040517f08c379a00000000000000000000000000000000000000000000000000000000081526004016105a890611507565b60405180910390fd5b80915050919050565b60008073ffffffffffffffffffffffffffffffffffffffff168273ffffffffffffffffffffffffffffffffffffffff16141561062b576040517f08c379a000000000000000000000000000000000000000000000000000000000815260040161062290611507565b60405180910390fd5b600460008373ffffffffffffffffffffffffffffffffffffffff1673ffffffffffffffffffffffffffffffffffffffff168152602001908152602001600020549050919050565b6060600280546106819061131a565b80601f01602080910402602001604051908101604052809291908181526020018280546106ad9061131a565b80156106fa5780601f106106cf576101008083540402835291602001916106fa565b820191906000526020600020905b8154815290600101906020018083116106dd57829003601f168201915b5050505050905090565b600a818154811061071457600080fd5b90600052602060002001600091509050805461072f9061131a565b80601f016020809104026020016040519081016040528092919081815260200182805461075b9061131a565b80156107a85780601f1061077d576101008083540402835291602001916107a8565b820191906000526020600020905b81548152906001019060200180831161078b57829003601f168201915b505050505081565b600b816040516107c09190611563565b908152602001604051809103902060009054906101000a900460ff16156107e657600080fd5b600a81908060018154018082558091505060019003906000526020600020016000909190919091509080519060200190610821929190610d6b565b5060006001600a8054905061083691906115a9565b90506108423382610a15565b6001600b836040516108549190611563565b908152602001604051809103902060006101000a81548160ff0219169083151502179055505050565b600073ffffffffffffffffffffffffffffffffffffffff168273ffffffffffffffffffffffffffffffffffffffff1614156108ed576040517f08c379a00000000000000000000000000000000000000000000000000000000081526004016108e49061164f565b60405180910390fd5b8273ffffffffffffffffffffffffffffffffffffffff1661090d82610508565b73ffffffffffffffffffffffffffffffffffffffff1614610963576040517f08c379a000000000000000000000000000000000000000000000000000000000815260040161095a906116e1565b60405180910390fd5b816003600083815260200190815260200160002060006101000a81548173ffffffffffffffffffffffffffffffffffffffff021916908373ffffffffffffffffffffffffffffffffffffffff160217905550808273ffffffffffffffffffffffffffffffffffffffff168473ffffffffffffffffffffffffffffffffffffffff167fddf252ad1be2c89b69c2b068fc378daa952ba7f163c4a11628f55a4df523b3ef60405160405180910390a4505050565b610a1f8282610a36565b610a2881610bf8565b610a328282610c35565b5050565b600073ffffffffffffffffffffffffffffffffffffffff168273ffffffffffffffffffffffffffffffffffffffff161415610aa6576040517f08c379a0000000000000000000000000000000000000000000000000000000008152600401610a9d9061174d565b60405180910390fd5b610aaf81610cf9565b15610aef576040517f08c379a0000000000000000000000000000000000000000000000000000000008152600401610ae6906117b9565b60405180910390fd5b816003600083815260200190815260200160002060006101000a81548173ffffffffffffffffffffffffffffffffffffffff021916908373ffffffffffffffffffffffffffffffffffffffff1602179055506001600460008473ffffffffffffffffffffffffffffffffffffffff1673ffffffffffffffffffffffffffffffffffffffff1681526020019081526020016000206000828254610b9191906117d9565b92505081905550808273ffffffffffffffffffffffffffffffffffffffff16600073ffffffffffffffffffffffffffffffffffffffff167fddf252ad1be2c89b69c2b068fc378daa952ba7f163c4a11628f55a4df523b3ef60405160405180910390a45050565b6006805490506007600083815260200190815260200160002081905550600660018160018154018082558091505003906000526020600020505050565b600860008373ffffffffffffffffffffffffffffffffffffffff1673ffffffffffffffffffffffffffffffffffffffff168152602001908152602001600020805490506009600083815260200190815260200160002081905550600860008373ffffffffffffffffffffffffffffffffffffffff1673ffffffffffffffffffffffffffffffffffffffff1681526020019081526020016000208190806001815401808255809150506001900390600052602060002001600090919091909150555050565b6000806003600084815260200190815260200160002060009054906101000a900473ffffffffffffffffffffffffffffffffffffffff169050600073ffffffffffffffffffffffffffffffffffffffff168173ffffffffffffffffffffffffffffffffffffffff161415915050919050565b828054610d779061131a565b90600052602060002090601f016020900481019282610d995760008555610de0565b82601f10610db257805160ff1916838001178555610de0565b82800160010185558215610de0579182015b82811115610ddf578251825591602001919060010190610dc4565b5b509050610ded9190610df1565b5090565b5b80821115610e0a576000816000905550600101610df2565b5090565b6000604051905090565b600080fd5b600080fd5b60007fffffffff0000000000000000000000000000000000000000000000000000000082169050919050565b610e5781610e22565b8114610e6257600080fd5b50565b600081359050610e7481610e4e565b92915050565b600060208284031215610e9057610e8f610e18565b5b6000610e9e84828501610e65565b91505092915050565b60008115159050919050565b610ebc81610ea7565b82525050565b6000602082019050610ed76000830184610eb3565b92915050565b600081519050919050565b600082825260208201905092915050565b60005b83811015610f17578082015181840152602081019050610efc565b83811115610f26576000848401525b50505050565b6000601f19601f8301169050919050565b6000610f4882610edd565b610f528185610ee8565b9350610f62818560208601610ef9565b610f6b81610f2c565b840191505092915050565b60006020820190508181036000830152610f908184610f3d565b905092915050565b6000819050919050565b610fab81610f98565b82525050565b6000602082019050610fc66000830184610fa2565b92915050565b600073ffffffffffffffffffffffffffffffffffffffff82169050919050565b6000610ff782610fcc565b9050919050565b61100781610fec565b811461101257600080fd5b50565b60008135905061102481610ffe565b92915050565b61103381610f98565b811461103e57600080fd5b50565b6000813590506110508161102a565b92915050565b60008060006060848603121561106f5761106e610e18565b5b600061107d86828701611015565b935050602061108e86828701611015565b925050604061109f86828701611041565b9150509250925092565b600080604083850312156110c0576110bf610e18565b5b60006110ce85828601611015565b92505060206110df85828601611041565b9150509250929050565b6000602082840312156110ff576110fe610e18565b5b600061110d84828501611041565b91505092915050565b61111f81610fec565b82525050565b600060208201905061113a6000830184611116565b92915050565b60006020828403121561115657611155610e18565b5b600061116484828501611015565b91505092915050565b600080fd5b600080fd5b7f4e487b7100000000000000000000000000000000000000000000000000000000600052604160045260246000fd5b6111af82610f2c565b810181811067ffffffffffffffff821117156111ce576111cd611177565b5b80604052505050565b60006111e1610e0e565b90506111ed82826111a6565b919050565b600067ffffffffffffffff82111561120d5761120c611177565b5b61121682610f2c565b9050602081019050919050565b82818337600083830152505050565b6000611245611240846111f2565b6111d7565b90508281526020810184848401111561126157611260611172565b5b61126c848285611223565b509392505050565b600082601f8301126112895761128861116d565b5b8135611299848260208601611232565b91505092915050565b6000602082840312156112b8576112b7610e18565b5b600082013567ffffffffffffffff8111156112d6576112d5610e1d565b5b6112e284828501611274565b91505092915050565b7f4e487b7100000000000000000000000000000000000000000000000000000000600052602260045260246000fd5b6000600282049050600182168061133257607f821691505b60208210811415611346576113456112eb565b5b50919050565b60008151905061135b8161102a565b92915050565b60006020828403121561137757611376610e18565b5b60006113858482850161134c565b91505092915050565b7f6f776e657220696e646578206973206f7574206f6620626f756e640000000000600082015250565b60006113c4601b83610ee8565b91506113cf8261138e565b602082019050919050565b600060208201905081810360008301526113f3816113b7565b9050919050565b7f4e487b7100000000000000000000000000000000000000000000000000000000600052603260045260246000fd5b7f676c6f62616c20696e646578206973206f7574206f6620626f756e6473000000600082015250565b600061145f601d83610ee8565b915061146a82611429565b602082019050919050565b6000602082019050818103600083015261148e81611452565b9050919050565b7f4f776e657220717565727920666f72206e6f6e2d6578697374616e7420746f6b60008201527f656e000000000000000000000000000000000000000000000000000000000000602082015250565b60006114f1602283610ee8565b91506114fc82611495565b604082019050919050565b60006020820190508181036000830152611520816114e4565b9050919050565b600081905092915050565b600061153d82610edd565b6115478185611527565b9350611557818560208601610ef9565b80840191505092915050565b600061156f8284611532565b915081905092915050565b7f4e487b7100000000000000000000000000000000000000000000000000000000600052601160045260246000fd5b60006115b482610f98565b91506115bf83610f98565b9250828210156115d2576115d161157a565b5b828203905092915050565b7f4572726f72202d20455243373231205472616e7366657220746f20746865207a60008201527f65726f2061646472657373000000000000000000000000000000000000000000602082015250565b6000611639602b83610ee8565b9150611644826115dd565b604082019050919050565b600060208201905081810360008301526116688161162c565b9050919050565b7f547279696e6720746f207472616e73666572206120746f6b656e20746865206160008201527f64647265737320646f6573206e6f74206f776e21000000000000000000000000602082015250565b60006116cb603483610ee8565b91506116d68261166f565b604082019050919050565b600060208201905081810360008301526116fa816116be565b9050919050565b7f4552433732313a206d696e74696e6720746f2074686520302061646472657373600082015250565b6000611737602083610ee8565b915061174282611701565b602082019050919050565b600060208201905081810360008301526117668161172a565b9050919050565b7f4552433732313a20546f6b656e20616c7265616479206d696e74656400000000600082015250565b60006117a3601c83610ee8565b91506117ae8261176d565b602082019050919050565b600060208201905081810360008301526117d281611796565b9050919050565b60006117e482610f98565b91506117ef83610f98565b9250827fffffffffffffffffffffffffffffffffffffffffffffffffffffffffffffffff038211156118245761182361157a565b5b82820190509291505056fea264697066735822122088dc279433daa778521128b6b58cfc37c2cdb0ae2aada39df063931db50fa7c764736f6c634300080a0033",
  "immutableReferences": {},
  "source": "// SPDX-License-Identifier: MIT\npragma solidity ^0.8.0;\n\nimport './ERC721Connector.sol';\n\ncontract CryptoWhale is ERC721Connector {\n\n    // Array to store our NFTs\n    string[] public cryptoWhales;\n\n    mapping(string => bool) _cryptoWhalesExists;\n\n    function mint(string memory _cryptoWhale) public {\n\n        require(!_cryptoWhalesExists[_cryptoWhale]);\n\n        // DEPRECATED: uint _id = CryptoWhales.push(_cryptoWhale);\n        cryptoWhales.push(_cryptoWhale);\n        uint _id = cryptoWhales.length - 1;\n\n        _mint(msg.sender, _id);\n\n        _cryptoWhalesExists[_cryptoWhale] = true;\n    }\n\n    constructor() ERC721Connector('CryptoWhale', 'CWHALE'){\n        {}\n    }\n}",
  "sourcePath": "/Users/kady/Desktop/nftmarketplace/src/contracts/CryptoWhale.sol",
  "compiler": {
    "name": "solc",
    "version": "0.8.10+commit.fc410830.Emscripten.clang"
  },
  "schemaVersion": "3.4.3",
  "updatedAt": "2021-12-03T12:35:54.433Z",
  "networkType": "ethereum",
  "devdoc": {
    "kind": "dev",
    "methods": {
      "balanceOf(address)": {
        "details": "NFTs assigned to the zero address are considered invalid, and this  function throws for queries about the zero address.",
        "params": {
          "_owner": "An address for whom to query the balance"
        },
        "returns": {
          "_0": "The number of NFTs owned by `_owner`, possibly zero"
        }
      },
      "ownerOf(uint256)": {
        "details": "NFTs assigned to zero address are considered invalid, and queries  about them do throw.",
        "params": {
          "_tokenId": "The identifier for an NFT"
        },
        "returns": {
          "_0": "The address of the owner of the NFT"
        }
      },
      "supportsInterface(bytes4)": {
        "details": "Interface identification is specified in ERC-165. This function  uses less than 30,000 gas.",
        "params": {
          "interfaceID": "The interface identifier, as specified in ERC-165"
        },
        "returns": {
          "_0": "`true` if the contract implements `interfaceID` and  `interfaceID` is not 0xffffffff, `false` otherwise"
        }
      },
      "totalSupply()": {
        "returns": {
          "_0": "A count of valid NFTs tracked by this contract, where each one of  them has an assigned and queryable owner not equal to the zero address"
        }
      },
      "transferFrom(address,address,uint256)": {
        "details": "Throws unless `msg.sender` is the current owner, an authorized  operator, or the approved address for this NFT. Throws if `_from` is  not the current owner. Throws if `_to` is the zero address. Throws if  `_tokenId` is not a valid NFT.",
        "params": {
          "_from": "The current owner of the NFT",
          "_to": "The new owner",
          "_tokenId": "The NFT to transfer"
        }
      }
    },
    "version": 1
  },
  "userdoc": {
    "kind": "user",
    "methods": {
      "balanceOf(address)": {
        "notice": "Count all NFTs assigned to an owner"
      },
      "name()": {
        "notice": "A descriptive name for a collection of NFTs in this contract"
      },
      "supportsInterface(bytes4)": {
        "notice": "Query if a contract implements an interface"
      },
      "symbol()": {
        "notice": "An abbreviated name for NFTs in this contract"
      },
      "totalSupply()": {
        "notice": "Count NFTs tracked by this contract"
      },
      "transferFrom(address,address,uint256)": {
        "notice": "Transfer ownership of an NFT -- THE CALLER IS RESPONSIBLE  TO CONFIRM THAT `_to` IS CAPABLE OF RECEIVING NFTS OR ELSE  THEY MAY BE PERMANENTLY LOST"
      }
    },
    "version": 1
  }
}