{
  "contractName": "CryptoWhale",
  "abi": [
    {
      "inputs": [],
      "stateMutability": "nonpayable",
      "type": "constructor"
    },
    {
      "anonymous": false,
      "inputs": [
        {
          "indexed": true,
          "internalType": "address",
          "name": "from",
          "type": "address"
        },
        {
          "indexed": true,
          "internalType": "address",
          "name": "to",
          "type": "address"
        },
        {
          "indexed": true,
          "internalType": "uint256",
          "name": "tokenId",
          "type": "uint256"
        }
      ],
      "name": "Transfer",
      "type": "event"
    },
    {
      "inputs": [
        {
          "internalType": "address",
          "name": "_owner",
          "type": "address"
        }
      ],
      "name": "balanceOf",
      "outputs": [
        {
          "internalType": "uint256",
          "name": "",
          "type": "uint256"
        }
      ],
      "stateMutability": "view",
      "type": "function",
      "constant": true
    },
    {
      "inputs": [
        {
          "internalType": "uint256",
          "name": "",
          "type": "uint256"
        }
      ],
      "name": "cryptoWhales",
      "outputs": [
        {
          "internalType": "string",
          "name": "",
          "type": "string"
        }
      ],
      "stateMutability": "view",
      "type": "function",
      "constant": true
    },
    {
      "inputs": [],
      "name": "name",
      "outputs": [
        {
          "internalType": "string",
          "name": "",
          "type": "string"
        }
      ],
      "stateMutability": "view",
      "type": "function",
      "constant": true
    },
    {
      "inputs": [
        {
          "internalType": "uint256",
          "name": "_tokenId",
          "type": "uint256"
        }
      ],
      "name": "ownerOf",
      "outputs": [
        {
          "internalType": "address",
          "name": "",
          "type": "address"
        }
      ],
      "stateMutability": "view",
      "type": "function",
      "constant": true
    },
    {
      "inputs": [],
      "name": "symbol",
      "outputs": [
        {
          "internalType": "string",
          "name": "",
          "type": "string"
        }
      ],
      "stateMutability": "view",
      "type": "function",
      "constant": true
    },
    {
      "inputs": [
        {
          "internalType": "uint256",
          "name": "index",
          "type": "uint256"
        }
      ],
      "name": "tokenByIndex",
      "outputs": [
        {
          "internalType": "uint256",
          "name": "",
          "type": "uint256"
        }
      ],
      "stateMutability": "view",
      "type": "function",
      "constant": true
    },
    {
      "inputs": [
        {
          "internalType": "address",
          "name": "owner",
          "type": "address"
        },
        {
          "internalType": "uint256",
          "name": "index",
          "type": "uint256"
        }
      ],
      "name": "tokenOfOwnerByIndex",
      "outputs": [
        {
          "internalType": "uint256",
          "name": "",
          "type": "uint256"
        }
      ],
      "stateMutability": "view",
      "type": "function",
      "constant": true
    },
    {
      "inputs": [],
      "name": "totalSupply",
      "outputs": [
        {
          "internalType": "uint256",
          "name": "",
          "type": "uint256"
        }
      ],
      "stateMutability": "view",
      "type": "function",
      "constant": true
    },
    {
      "inputs": [
        {
          "internalType": "string",
          "name": "_cryptoWhale",
          "type": "string"
        }
      ],
      "name": "mint",
      "outputs": [],
      "stateMutability": "nonpayable",
      "type": "function"
    }
  ],
  "bytecode": "0x60806040523480156200001157600080fd5b506040518060400160405280600b81526020017f43727970746f5768616c650000000000000000000000000000000000000000008152506040518060400160405280600681526020017f435748414c4500000000000000000000000000000000000000000000000000008152508181816000908051906020019062000098929190620000bc565b508060019080519060200190620000b1929190620000bc565b5050505050620001d1565b828054620000ca906200019b565b90600052602060002090601f016020900481019282620000ee57600085556200013a565b82601f106200010957805160ff19168380011785556200013a565b828001600101855582156200013a579182015b82811115620001395782518255916020019190600101906200011c565b5b5090506200014991906200014d565b5090565b5b80821115620001685760008160009055506001016200014e565b5090565b7f4e487b7100000000000000000000000000000000000000000000000000000000600052602260045260246000fd5b60006002820490506001821680620001b457607f821691505b60208210811415620001cb57620001ca6200016c565b5b50919050565b6113c280620001e16000396000f3fe608060405234801561001057600080fd5b50600436106100935760003560e01c80636352211e116100665780636352211e1461013457806370a082311461016457806395d89b4114610194578063b97e5f00146101b2578063d85d3d27146101e257610093565b806306fdde031461009857806318160ddd146100b65780632f745c59146100d45780634f6ccce714610104575b600080fd5b6100a06101fe565b6040516100ad9190610c36565b60405180910390f35b6100be610290565b6040516100cb9190610c71565b60405180910390f35b6100ee60048036038101906100e99190610d2a565b61029d565b6040516100fb9190610c71565b60405180910390f35b61011e60048036038101906101199190610d6a565b6103be565b60405161012b9190610c71565b60405180910390f35b61014e60048036038101906101499190610d6a565b61042f565b60405161015b9190610da6565b60405180910390f35b61017e60048036038101906101799190610dc1565b6104e1565b60405161018b9190610c71565b60405180910390f35b61019c610599565b6040516101a99190610c36565b60405180910390f35b6101cc60048036038101906101c79190610d6a565b61062b565b6040516101d99190610c36565b60405180910390f35b6101fc60048036038101906101f79190610f23565b6106d7565b005b60606000805461020d90610f9b565b80601f016020809104026020016040519081016040528092919081815260200182805461023990610f9b565b80156102865780601f1061025b57610100808354040283529160200191610286565b820191906000526020600020905b81548152906001019060200180831161026957829003601f168201915b5050505050905090565b6000600480549050905090565b60003073ffffffffffffffffffffffffffffffffffffffff166370a08231846040518263ffffffff1660e01b81526004016102d89190610da6565b602060405180830381865afa1580156102f5573d6000803e3d6000fd5b505050506040513d601f19601f820116820180604052508101906103199190610fe2565b821061035a576040517f08c379a00000000000000000000000000000000000000000000000000000000081526004016103519061105b565b60405180910390fd5b600660008473ffffffffffffffffffffffffffffffffffffffff1673ffffffffffffffffffffffffffffffffffffffff16815260200190815260200160002082815481106103ab576103aa61107b565b5b9060005260206000200154905092915050565b60006103c8610290565b8210610409576040517f08c379a0000000000000000000000000000000000000000000000000000000008152600401610400906110f6565b60405180910390fd5b6004828154811061041d5761041c61107b565b5b90600052602060002001549050919050565b6000806002600084815260200190815260200160002060009054906101000a900473ffffffffffffffffffffffffffffffffffffffff169050600073ffffffffffffffffffffffffffffffffffffffff168173ffffffffffffffffffffffffffffffffffffffff1614156104d8576040517f08c379a00000000000000000000000000000000000000000000000000000000081526004016104cf90611188565b60405180910390fd5b80915050919050565b60008073ffffffffffffffffffffffffffffffffffffffff168273ffffffffffffffffffffffffffffffffffffffff161415610552576040517f08c379a000000000000000000000000000000000000000000000000000000000815260040161054990611188565b60405180910390fd5b600360008373ffffffffffffffffffffffffffffffffffffffff1673ffffffffffffffffffffffffffffffffffffffff168152602001908152602001600020549050919050565b6060600180546105a890610f9b565b80601f01602080910402602001604051908101604052809291908181526020018280546105d490610f9b565b80156106215780601f106105f657610100808354040283529160200191610621565b820191906000526020600020905b81548152906001019060200180831161060457829003601f168201915b5050505050905090565b6008818154811061063b57600080fd5b90600052602060002001600091509050805461065690610f9b565b80601f016020809104026020016040519081016040528092919081815260200182805461068290610f9b565b80156106cf5780601f106106a4576101008083540402835291602001916106cf565b820191906000526020600020905b8154815290600101906020018083116106b257829003601f168201915b505050505081565b6009816040516106e791906111e4565b908152602001604051809103902060009054906101000a900460ff161561070d57600080fd5b600881908060018154018082558091505060019003906000526020600020016000909190919091509080519060200190610748929190610afa565b506000600160088054905061075d919061122a565b905061076933826107a4565b600160098360405161077b91906111e4565b908152602001604051809103902060006101000a81548160ff0219169083151502179055505050565b6107ae82826107c5565b6107b781610987565b6107c182826109c4565b5050565b600073ffffffffffffffffffffffffffffffffffffffff168273ffffffffffffffffffffffffffffffffffffffff161415610835576040517f08c379a000000000000000000000000000000000000000000000000000000000815260040161082c906112aa565b60405180910390fd5b61083e81610a88565b1561087e576040517f08c379a000000000000000000000000000000000000000000000000000000000815260040161087590611316565b60405180910390fd5b816002600083815260200190815260200160002060006101000a81548173ffffffffffffffffffffffffffffffffffffffff021916908373ffffffffffffffffffffffffffffffffffffffff1602179055506001600360008473ffffffffffffffffffffffffffffffffffffffff1673ffffffffffffffffffffffffffffffffffffffff16815260200190815260200160002060008282546109209190611336565b92505081905550808273ffffffffffffffffffffffffffffffffffffffff16600073ffffffffffffffffffffffffffffffffffffffff167fddf252ad1be2c89b69c2b068fc378daa952ba7f163c4a11628f55a4df523b3ef60405160405180910390a45050565b6004805490506005600083815260200190815260200160002081905550600460018160018154018082558091505003906000526020600020505050565b600660008373ffffffffffffffffffffffffffffffffffffffff1673ffffffffffffffffffffffffffffffffffffffff168152602001908152602001600020805490506007600083815260200190815260200160002081905550600660008373ffffffffffffffffffffffffffffffffffffffff1673ffffffffffffffffffffffffffffffffffffffff1681526020019081526020016000208190806001815401808255809150506001900390600052602060002001600090919091909150555050565b6000806002600084815260200190815260200160002060009054906101000a900473ffffffffffffffffffffffffffffffffffffffff169050600073ffffffffffffffffffffffffffffffffffffffff168173ffffffffffffffffffffffffffffffffffffffff161415915050919050565b828054610b0690610f9b565b90600052602060002090601f016020900481019282610b285760008555610b6f565b82601f10610b4157805160ff1916838001178555610b6f565b82800160010185558215610b6f579182015b82811115610b6e578251825591602001919060010190610b53565b5b509050610b7c9190610b80565b5090565b5b80821115610b99576000816000905550600101610b81565b5090565b600081519050919050565b600082825260208201905092915050565b60005b83811015610bd7578082015181840152602081019050610bbc565b83811115610be6576000848401525b50505050565b6000601f19601f8301169050919050565b6000610c0882610b9d565b610c128185610ba8565b9350610c22818560208601610bb9565b610c2b81610bec565b840191505092915050565b60006020820190508181036000830152610c508184610bfd565b905092915050565b6000819050919050565b610c6b81610c58565b82525050565b6000602082019050610c866000830184610c62565b92915050565b6000604051905090565b600080fd5b600080fd5b600073ffffffffffffffffffffffffffffffffffffffff82169050919050565b6000610ccb82610ca0565b9050919050565b610cdb81610cc0565b8114610ce657600080fd5b50565b600081359050610cf881610cd2565b92915050565b610d0781610c58565b8114610d1257600080fd5b50565b600081359050610d2481610cfe565b92915050565b60008060408385031215610d4157610d40610c96565b5b6000610d4f85828601610ce9565b9250506020610d6085828601610d15565b9150509250929050565b600060208284031215610d8057610d7f610c96565b5b6000610d8e84828501610d15565b91505092915050565b610da081610cc0565b82525050565b6000602082019050610dbb6000830184610d97565b92915050565b600060208284031215610dd757610dd6610c96565b5b6000610de584828501610ce9565b91505092915050565b600080fd5b600080fd5b7f4e487b7100000000000000000000000000000000000000000000000000000000600052604160045260246000fd5b610e3082610bec565b810181811067ffffffffffffffff82111715610e4f57610e4e610df8565b5b80604052505050565b6000610e62610c8c565b9050610e6e8282610e27565b919050565b600067ffffffffffffffff821115610e8e57610e8d610df8565b5b610e9782610bec565b9050602081019050919050565b82818337600083830152505050565b6000610ec6610ec184610e73565b610e58565b905082815260208101848484011115610ee257610ee1610df3565b5b610eed848285610ea4565b509392505050565b600082601f830112610f0a57610f09610dee565b5b8135610f1a848260208601610eb3565b91505092915050565b600060208284031215610f3957610f38610c96565b5b600082013567ffffffffffffffff811115610f5757610f56610c9b565b5b610f6384828501610ef5565b91505092915050565b7f4e487b7100000000000000000000000000000000000000000000000000000000600052602260045260246000fd5b60006002820490506001821680610fb357607f821691505b60208210811415610fc757610fc6610f6c565b5b50919050565b600081519050610fdc81610cfe565b92915050565b600060208284031215610ff857610ff7610c96565b5b600061100684828501610fcd565b91505092915050565b7f6f776e657220696e646578206973206f7574206f6620626f756e640000000000600082015250565b6000611045601b83610ba8565b91506110508261100f565b602082019050919050565b6000602082019050818103600083015261107481611038565b9050919050565b7f4e487b7100000000000000000000000000000000000000000000000000000000600052603260045260246000fd5b7f676c6f62616c20696e646578206973206f7574206f6620626f756e6473000000600082015250565b60006110e0601d83610ba8565b91506110eb826110aa565b602082019050919050565b6000602082019050818103600083015261110f816110d3565b9050919050565b7f4f776e657220717565727920666f72206e6f6e2d6578697374616e7420746f6b60008201527f656e000000000000000000000000000000000000000000000000000000000000602082015250565b6000611172602283610ba8565b915061117d82611116565b604082019050919050565b600060208201905081810360008301526111a181611165565b9050919050565b600081905092915050565b60006111be82610b9d565b6111c881856111a8565b93506111d8818560208601610bb9565b80840191505092915050565b60006111f082846111b3565b915081905092915050565b7f4e487b7100000000000000000000000000000000000000000000000000000000600052601160045260246000fd5b600061123582610c58565b915061124083610c58565b925082821015611253576112526111fb565b5b828203905092915050565b7f4552433732313a206d696e74696e6720746f2074686520302061646472657373600082015250565b6000611294602083610ba8565b915061129f8261125e565b602082019050919050565b600060208201905081810360008301526112c381611287565b9050919050565b7f4552433732313a20546f6b656e20616c7265616479206d696e74656400000000600082015250565b6000611300601c83610ba8565b915061130b826112ca565b602082019050919050565b6000602082019050818103600083015261132f816112f3565b9050919050565b600061134182610c58565b915061134c83610c58565b9250827fffffffffffffffffffffffffffffffffffffffffffffffffffffffffffffffff03821115611381576113806111fb565b5b82820190509291505056fea264697066735822122083892d376c80d07bf61b1e01f7204b966cc82696611809457c80d87d3bdc7a0a64736f6c634300080a0033",
  "immutableReferences": {},
  "source": "// SPDX-License-Identifier: MIT\npragma solidity ^0.8.0;\n\nimport './ERC721Connector.sol';\n\ncontract CryptoWhale is ERC721Connector {\n\n    // Array to store our NFTs\n    string[] public cryptoWhales;\n\n    mapping(string => bool) _cryptoWhalesExists;\n\n    function mint(string memory _cryptoWhale) public {\n\n        require(!_cryptoWhalesExists[_cryptoWhale]);\n\n        // DEPRECATED: uint _id = CryptoWhales.push(_cryptoWhale);\n        cryptoWhales.push(_cryptoWhale);\n        uint _id = cryptoWhales.length - 1;\n\n        _mint(msg.sender, _id);\n\n        _cryptoWhalesExists[_cryptoWhale] = true;\n    }\n\n    constructor() ERC721Connector('CryptoWhale', 'CWHALE'){\n        {}\n    }\n}",
  "sourcePath": "/Users/kady/Desktop/nftmarketplace/src/contracts/CryptoWhale.sol",
  "compiler": {
    "name": "solc",
    "version": "0.8.10+commit.fc410830.Emscripten.clang"
  },
  "schemaVersion": "3.4.3",
  "updatedAt": "2021-12-02T15:08:12.503Z",
  "networkType": "ethereum",
  "devdoc": {
    "kind": "dev",
    "methods": {
      "balanceOf(address)": {
        "details": "NFTs assigned to the zero address are considered invalid, and this  function throws for queries about the zero address.",
        "params": {
          "_owner": "An address for whom to query the balance"
        },
        "returns": {
          "_0": "The number of NFTs owned by `_owner`, possibly zero"
        }
      },
      "ownerOf(uint256)": {
        "details": "NFTs assigned to zero address are considered invalid, and queries  about them do throw.",
        "params": {
          "_tokenId": "The identifier for an NFT"
        },
        "returns": {
          "_0": "The address of the owner of the NFT"
        }
      }
    },
    "version": 1
  },
  "userdoc": {
    "kind": "user",
    "methods": {
      "balanceOf(address)": {
        "notice": "Count all NFTs assigned to an owner"
      }
    },
    "version": 1
  }
}