{
  "contractName": "ERC721Enumerable",
  "abi": [
    {
      "anonymous": false,
      "inputs": [
        {
          "indexed": true,
          "internalType": "address",
          "name": "_owner",
          "type": "address"
        },
        {
          "indexed": true,
          "internalType": "address",
          "name": "_approved",
          "type": "address"
        },
        {
          "indexed": true,
          "internalType": "uint256",
          "name": "_tokenId",
          "type": "uint256"
        }
      ],
      "name": "Approval",
      "type": "event"
    },
    {
      "anonymous": false,
      "inputs": [
        {
          "indexed": true,
          "internalType": "address",
          "name": "_from",
          "type": "address"
        },
        {
          "indexed": true,
          "internalType": "address",
          "name": "_to",
          "type": "address"
        },
        {
          "indexed": true,
          "internalType": "uint256",
          "name": "_tokenId",
          "type": "uint256"
        }
      ],
      "name": "Transfer",
      "type": "event"
    },
    {
      "inputs": [
        {
          "internalType": "address",
          "name": "_owner",
          "type": "address"
        }
      ],
      "name": "balanceOf",
      "outputs": [
        {
          "internalType": "uint256",
          "name": "",
          "type": "uint256"
        }
      ],
      "stateMutability": "view",
      "type": "function"
    },
    {
      "inputs": [
        {
          "internalType": "uint256",
          "name": "_tokenId",
          "type": "uint256"
        }
      ],
      "name": "ownerOf",
      "outputs": [
        {
          "internalType": "address",
          "name": "",
          "type": "address"
        }
      ],
      "stateMutability": "view",
      "type": "function"
    },
    {
      "inputs": [
        {
          "internalType": "bytes4",
          "name": "interfaceID",
          "type": "bytes4"
        }
      ],
      "name": "supportsInterface",
      "outputs": [
        {
          "internalType": "bool",
          "name": "",
          "type": "bool"
        }
      ],
      "stateMutability": "view",
      "type": "function"
    },
    {
      "inputs": [
        {
          "internalType": "address",
          "name": "_from",
          "type": "address"
        },
        {
          "internalType": "address",
          "name": "_to",
          "type": "address"
        },
        {
          "internalType": "uint256",
          "name": "_tokenId",
          "type": "uint256"
        }
      ],
      "name": "transferFrom",
      "outputs": [],
      "stateMutability": "nonpayable",
      "type": "function"
    },
    {
      "inputs": [
        {
          "internalType": "uint256",
          "name": "index",
          "type": "uint256"
        }
      ],
      "name": "tokenByIndex",
      "outputs": [
        {
          "internalType": "uint256",
          "name": "",
          "type": "uint256"
        }
      ],
      "stateMutability": "view",
      "type": "function"
    },
    {
      "inputs": [
        {
          "internalType": "address",
          "name": "owner",
          "type": "address"
        },
        {
          "internalType": "uint256",
          "name": "index",
          "type": "uint256"
        }
      ],
      "name": "tokenOfOwnerByIndex",
      "outputs": [
        {
          "internalType": "uint256",
          "name": "",
          "type": "uint256"
        }
      ],
      "stateMutability": "view",
      "type": "function"
    },
    {
      "inputs": [],
      "name": "totalSupply",
      "outputs": [
        {
          "internalType": "uint256",
          "name": "",
          "type": "uint256"
        }
      ],
      "stateMutability": "view",
      "type": "function"
    }
  ],
  "bytecode": "0x608060405234801561001057600080fd5b506100407f01ffc9a7a5cef8baa21ed3c5c0d7e23accb804b619e9333b597f47a0d84076e261004560201b60201c565b610197565b63ffffffff60e01b817bffffffffffffffffffffffffffffffffffffffffffffffffffffffff191614156100ae576040517f08c379a00000000000000000000000000000000000000000000000000000000081526004016100a590610177565b60405180910390fd5b6001600080837bffffffffffffffffffffffffffffffffffffffffffffffffffffffff19167bffffffffffffffffffffffffffffffffffffffffffffffffffffffff1916815260200190815260200160002060006101000a81548160ff02191690831515021790555050565b600082825260208201905092915050565b7f496e76616c696420496e74657266616365205265717565737400000000000000600082015250565b600061016160198361011a565b915061016c8261012b565b602082019050919050565b6000602082019050818103600083015261019081610154565b9050919050565b610c9f806101a66000396000f3fe608060405234801561001057600080fd5b506004361061007d5760003560e01c80632f745c591161005b5780632f745c59146100ec5780634f6ccce71461011c5780636352211e1461014c57806370a082311461017c5761007d565b806301ffc9a71461008257806318160ddd146100b257806323b872dd146100d0575b600080fd5b61009c60048036038101906100979190610721565b6101ac565b6040516100a99190610769565b60405180910390f35b6100ba610213565b6040516100c7919061079d565b60405180910390f35b6100ea60048036038101906100e59190610842565b610220565b005b61010660048036038101906101019190610895565b610230565b604051610113919061079d565b60405180910390f35b610136600480360381019061013191906108d5565b610351565b604051610143919061079d565b60405180910390f35b610166600480360381019061016191906108d5565b6103c2565b6040516101739190610911565b60405180910390f35b6101966004803603810190610191919061092c565b610474565b6040516101a3919061079d565b60405180910390f35b6000806000837bffffffffffffffffffffffffffffffffffffffffffffffffffffffff19167bffffffffffffffffffffffffffffffffffffffffffffffffffffffff1916815260200190815260200160002060009054906101000a900460ff169050919050565b6000600480549050905090565b61022b83838361052c565b505050565b60003073ffffffffffffffffffffffffffffffffffffffff166370a08231846040518263ffffffff1660e01b815260040161026b9190610911565b602060405180830381865afa158015610288573d6000803e3d6000fd5b505050506040513d601f19601f820116820180604052508101906102ac919061096e565b82106102ed576040517f08c379a00000000000000000000000000000000000000000000000000000000081526004016102e4906109f8565b60405180910390fd5b600660008473ffffffffffffffffffffffffffffffffffffffff1673ffffffffffffffffffffffffffffffffffffffff168152602001908152602001600020828154811061033e5761033d610a18565b5b9060005260206000200154905092915050565b600061035b610213565b821061039c576040517f08c379a000000000000000000000000000000000000000000000000000000000815260040161039390610a93565b60405180910390fd5b600482815481106103b0576103af610a18565b5b90600052602060002001549050919050565b6000806001600084815260200190815260200160002060009054906101000a900473ffffffffffffffffffffffffffffffffffffffff169050600073ffffffffffffffffffffffffffffffffffffffff168173ffffffffffffffffffffffffffffffffffffffff16141561046b576040517f08c379a000000000000000000000000000000000000000000000000000000000815260040161046290610b25565b60405180910390fd5b80915050919050565b60008073ffffffffffffffffffffffffffffffffffffffff168273ffffffffffffffffffffffffffffffffffffffff1614156104e5576040517f08c379a00000000000000000000000000000000000000000000000000000000081526004016104dc90610b25565b60405180910390fd5b600260008373ffffffffffffffffffffffffffffffffffffffff1673ffffffffffffffffffffffffffffffffffffffff168152602001908152602001600020549050919050565b600073ffffffffffffffffffffffffffffffffffffffff168273ffffffffffffffffffffffffffffffffffffffff16141561059c576040517f08c379a000000000000000000000000000000000000000000000000000000000815260040161059390610bb7565b60405180910390fd5b8273ffffffffffffffffffffffffffffffffffffffff166105bc826103c2565b73ffffffffffffffffffffffffffffffffffffffff1614610612576040517f08c379a000000000000000000000000000000000000000000000000000000000815260040161060990610c49565b60405180910390fd5b816001600083815260200190815260200160002060006101000a81548173ffffffffffffffffffffffffffffffffffffffff021916908373ffffffffffffffffffffffffffffffffffffffff160217905550808273ffffffffffffffffffffffffffffffffffffffff168473ffffffffffffffffffffffffffffffffffffffff167fddf252ad1be2c89b69c2b068fc378daa952ba7f163c4a11628f55a4df523b3ef60405160405180910390a4505050565b600080fd5b60007fffffffff0000000000000000000000000000000000000000000000000000000082169050919050565b6106fe816106c9565b811461070957600080fd5b50565b60008135905061071b816106f5565b92915050565b600060208284031215610737576107366106c4565b5b60006107458482850161070c565b91505092915050565b60008115159050919050565b6107638161074e565b82525050565b600060208201905061077e600083018461075a565b92915050565b6000819050919050565b61079781610784565b82525050565b60006020820190506107b2600083018461078e565b92915050565b600073ffffffffffffffffffffffffffffffffffffffff82169050919050565b60006107e3826107b8565b9050919050565b6107f3816107d8565b81146107fe57600080fd5b50565b600081359050610810816107ea565b92915050565b61081f81610784565b811461082a57600080fd5b50565b60008135905061083c81610816565b92915050565b60008060006060848603121561085b5761085a6106c4565b5b600061086986828701610801565b935050602061087a86828701610801565b925050604061088b8682870161082d565b9150509250925092565b600080604083850312156108ac576108ab6106c4565b5b60006108ba85828601610801565b92505060206108cb8582860161082d565b9150509250929050565b6000602082840312156108eb576108ea6106c4565b5b60006108f98482850161082d565b91505092915050565b61090b816107d8565b82525050565b60006020820190506109266000830184610902565b92915050565b600060208284031215610942576109416106c4565b5b600061095084828501610801565b91505092915050565b60008151905061096881610816565b92915050565b600060208284031215610984576109836106c4565b5b600061099284828501610959565b91505092915050565b600082825260208201905092915050565b7f6f776e657220696e646578206973206f7574206f6620626f756e640000000000600082015250565b60006109e2601b8361099b565b91506109ed826109ac565b602082019050919050565b60006020820190508181036000830152610a11816109d5565b9050919050565b7f4e487b7100000000000000000000000000000000000000000000000000000000600052603260045260246000fd5b7f676c6f62616c20696e646578206973206f7574206f6620626f756e6473000000600082015250565b6000610a7d601d8361099b565b9150610a8882610a47565b602082019050919050565b60006020820190508181036000830152610aac81610a70565b9050919050565b7f4f776e657220717565727920666f72206e6f6e2d6578697374616e7420746f6b60008201527f656e000000000000000000000000000000000000000000000000000000000000602082015250565b6000610b0f60228361099b565b9150610b1a82610ab3565b604082019050919050565b60006020820190508181036000830152610b3e81610b02565b9050919050565b7f4572726f72202d20455243373231205472616e7366657220746f20746865207a60008201527f65726f2061646472657373000000000000000000000000000000000000000000602082015250565b6000610ba1602b8361099b565b9150610bac82610b45565b604082019050919050565b60006020820190508181036000830152610bd081610b94565b9050919050565b7f547279696e6720746f207472616e73666572206120746f6b656e20746865206160008201527f64647265737320646f6573206e6f74206f776e21000000000000000000000000602082015250565b6000610c3360348361099b565b9150610c3e82610bd7565b604082019050919050565b60006020820190508181036000830152610c6281610c26565b905091905056fea2646970667358221220b3dc40b56b1d4e88700a952c14973af37a4fa017730faf34bb1d0ec80aad9d5764736f6c634300080a0033",
  "immutableReferences": {},
  "source": "// SPDX-License-Identifier: MIT\npragma solidity ^0.8.0;\n\nimport './ERC721.sol';\n\ncontract ERC721Enumerable is ERC721 {\n\n    uint[] private _allTokens;\n\n    // mapping from tokenId to position in _allTokens array\n    mapping(uint => uint) private _allTokensIndex;\n\n    // mapping of owner to list of all owner token ids\n    mapping(address => uint[]) private _ownedTokens;\n\n    // mapping from token ID to index of the owner tokens list \n    mapping(uint => uint) private _ownedTokensIndex;\n\n    // @notice Count NFTs tracked by this contract\n    // @return A count of valid NFTs tracked by this contract, where each one of\n    ///  them has an assigned and queryable owner not equal to the zero address\n    // function totalSupply() external view returns (uint){\n    //     return _allTokens.length;\n    //     // Return the total Supply of _allTokens array\n    // }\n\n    // @notice Enumerate valid NFTs\n    // @dev Throws if `_index` >= `totalSupply()`.\n    // @param _index A counter less than `totalSupply()`\n    // @return The token identifier for the `_index`th NFT,\n    //  (sort order not specified)\n    //function tokenByIndex(uint _index) external view returns (uint);\n\n    // @notice Enumerate NFTs assigned to an owner\n    // @dev Throws if `_index` >= `balanceOf(_owner)` or if\n    //  `_owner` is the zero address, representing invalid NFTs.\n    // @param _owner An address where we are interested in NFTs owned by them\n    // @param _index A counter less than `balanceOf(_owner)`\n    // @return The token identifier for the `_index`th NFT assigned to `_owner`,\n    //   (sort order not specified)\n    //function tokenOfOwnerByIndex(address _owner, uint _index) external view returns (uint256);\n\n    function _mint(address to, uint tokenId) internal override(ERC721) {\n        super._mint(to, tokenId);\n        // 2 things we need:\n        // A. add tokens to the owner\n        // B. all tokens to our totalsuppy - to allTokens\n        //_addTokensToTotalSupply(tokenId);\n        _addTokensToAllTokenEnumeration(tokenId); \n        _addTokensToOwnerEnumeration(to, tokenId);\n    }\n\n    function _addTokensToAllTokenEnumeration(uint tokenId) private{\n        _allTokensIndex[tokenId] = _allTokens.length;\n        _allTokens.push();\n    }\n\n    function _addTokensToOwnerEnumeration(address to, uint tokenId) private {\n        // 1. add address and token id to the _ownedTokens\n        // 2. ownedTokensIndex tokenId set to address of ownedTokens position\n        // 3. we want to execute the function with minting\n        _ownedTokensIndex[tokenId] = _ownedTokens[to].length;\n        _ownedTokens[to].push(tokenId);\n\n    }\n\n    // A helper function that returns tokenByIndex\n    function tokenByIndex(uint index) public view returns(uint){\n        require(index < totalSupply(), 'global index is out of bounds');\n        return _allTokens[index];\n    }\n\n    // A function that returns tokenOfOwnerByIndex\n    function tokenOfOwnerByIndex(address owner, uint index) public view returns(uint){\n        require(index < this.balanceOf(owner), 'owner index is out of bound');\n        return _ownedTokens[owner][index];\n    }\n\n    // Replace this function \"_addTokensToTotalSupply\" with _addTokensToAllTokenEnumeration\n    // function _addTokensToTotalSupply(uint tokenId) private {\n    //     _allTokens.push(tokenId);\n    // }\n\n    function totalSupply() public view returns(uint){\n        return _allTokens.length;\n        // Return the total Supply of _allTokens array\n    }\n}",
  "sourcePath": "/Users/kady/Desktop/nftmarketplace/src/contracts/ERC721Enumerable.sol",
  "compiler": {
    "name": "solc",
    "version": "0.8.10+commit.fc410830.Emscripten.clang"
  },
  "schemaVersion": "3.4.3",
  "updatedAt": "2021-12-03T10:44:33.513Z",
  "devdoc": {
    "kind": "dev",
    "methods": {
      "balanceOf(address)": {
        "details": "NFTs assigned to the zero address are considered invalid, and this  function throws for queries about the zero address.",
        "params": {
          "_owner": "An address for whom to query the balance"
        },
        "returns": {
          "_0": "The number of NFTs owned by `_owner`, possibly zero"
        }
      },
      "ownerOf(uint256)": {
        "details": "NFTs assigned to zero address are considered invalid, and queries  about them do throw.",
        "params": {
          "_tokenId": "The identifier for an NFT"
        },
        "returns": {
          "_0": "The address of the owner of the NFT"
        }
      },
      "supportsInterface(bytes4)": {
        "details": "Interface identification is specified in ERC-165. This function  uses less than 30,000 gas.",
        "params": {
          "interfaceID": "The interface identifier, as specified in ERC-165"
        },
        "returns": {
          "_0": "`true` if the contract implements `interfaceID` and  `interfaceID` is not 0xffffffff, `false` otherwise"
        }
      },
      "transferFrom(address,address,uint256)": {
        "details": "Throws unless `msg.sender` is the current owner, an authorized  operator, or the approved address for this NFT. Throws if `_from` is  not the current owner. Throws if `_to` is the zero address. Throws if  `_tokenId` is not a valid NFT.",
        "params": {
          "_from": "The current owner of the NFT",
          "_to": "The new owner",
          "_tokenId": "The NFT to transfer"
        }
      }
    },
    "version": 1
  },
  "userdoc": {
    "kind": "user",
    "methods": {
      "balanceOf(address)": {
        "notice": "Count all NFTs assigned to an owner"
      },
      "supportsInterface(bytes4)": {
        "notice": "Query if a contract implements an interface"
      },
      "transferFrom(address,address,uint256)": {
        "notice": "Transfer ownership of an NFT -- THE CALLER IS RESPONSIBLE  TO CONFIRM THAT `_to` IS CAPABLE OF RECEIVING NFTS OR ELSE  THEY MAY BE PERMANENTLY LOST"
      }
    },
    "version": 1
  }
}