{
  "contractName": "ERC721Enumerable",
  "abi": [
    {
      "anonymous": false,
      "inputs": [
        {
          "indexed": true,
          "internalType": "address",
          "name": "from",
          "type": "address"
        },
        {
          "indexed": true,
          "internalType": "address",
          "name": "to",
          "type": "address"
        },
        {
          "indexed": true,
          "internalType": "uint256",
          "name": "tokenId",
          "type": "uint256"
        }
      ],
      "name": "Transfer",
      "type": "event"
    },
    {
      "inputs": [
        {
          "internalType": "address",
          "name": "_owner",
          "type": "address"
        }
      ],
      "name": "balanceOf",
      "outputs": [
        {
          "internalType": "uint256",
          "name": "",
          "type": "uint256"
        }
      ],
      "stateMutability": "view",
      "type": "function"
    },
    {
      "inputs": [
        {
          "internalType": "uint256",
          "name": "_tokenId",
          "type": "uint256"
        }
      ],
      "name": "ownerOf",
      "outputs": [
        {
          "internalType": "address",
          "name": "",
          "type": "address"
        }
      ],
      "stateMutability": "view",
      "type": "function"
    },
    {
      "inputs": [
        {
          "internalType": "uint256",
          "name": "index",
          "type": "uint256"
        }
      ],
      "name": "tokenByIndex",
      "outputs": [
        {
          "internalType": "uint256",
          "name": "",
          "type": "uint256"
        }
      ],
      "stateMutability": "view",
      "type": "function"
    },
    {
      "inputs": [
        {
          "internalType": "address",
          "name": "owner",
          "type": "address"
        },
        {
          "internalType": "uint256",
          "name": "index",
          "type": "uint256"
        }
      ],
      "name": "tokenOfOwnerByIndex",
      "outputs": [
        {
          "internalType": "uint256",
          "name": "",
          "type": "uint256"
        }
      ],
      "stateMutability": "view",
      "type": "function"
    },
    {
      "inputs": [],
      "name": "totalSupply",
      "outputs": [
        {
          "internalType": "uint256",
          "name": "",
          "type": "uint256"
        }
      ],
      "stateMutability": "view",
      "type": "function"
    }
  ],
  "bytecode": "0x608060405234801561001057600080fd5b506107eb806100206000396000f3fe608060405234801561001057600080fd5b50600436106100575760003560e01c806318160ddd1461005c5780632f745c591461007a5780634f6ccce7146100aa5780636352211e146100da57806370a082311461010a575b600080fd5b61006461013a565b604051610071919061045b565b60405180910390f35b610094600480360381019061008f9190610505565b610147565b6040516100a1919061045b565b60405180910390f35b6100c460048036038101906100bf9190610545565b610268565b6040516100d1919061045b565b60405180910390f35b6100f460048036038101906100ef9190610545565b6102d9565b6040516101019190610581565b60405180910390f35b610124600480360381019061011f919061059c565b61038a565b604051610131919061045b565b60405180910390f35b6000600280549050905090565b60003073ffffffffffffffffffffffffffffffffffffffff166370a08231846040518263ffffffff1660e01b81526004016101829190610581565b602060405180830381865afa15801561019f573d6000803e3d6000fd5b505050506040513d601f19601f820116820180604052508101906101c391906105de565b8210610204576040517f08c379a00000000000000000000000000000000000000000000000000000000081526004016101fb90610668565b60405180910390fd5b600460008473ffffffffffffffffffffffffffffffffffffffff1673ffffffffffffffffffffffffffffffffffffffff168152602001908152602001600020828154811061025557610254610688565b5b9060005260206000200154905092915050565b600061027261013a565b82106102b3576040517f08c379a00000000000000000000000000000000000000000000000000000000081526004016102aa90610703565b60405180910390fd5b600282815481106102c7576102c6610688565b5b90600052602060002001549050919050565b60008060008084815260200190815260200160002060009054906101000a900473ffffffffffffffffffffffffffffffffffffffff169050600073ffffffffffffffffffffffffffffffffffffffff168173ffffffffffffffffffffffffffffffffffffffff161415610381576040517f08c379a000000000000000000000000000000000000000000000000000000000815260040161037890610795565b60405180910390fd5b80915050919050565b60008073ffffffffffffffffffffffffffffffffffffffff168273ffffffffffffffffffffffffffffffffffffffff1614156103fb576040517f08c379a00000000000000000000000000000000000000000000000000000000081526004016103f290610795565b60405180910390fd5b600160008373ffffffffffffffffffffffffffffffffffffffff1673ffffffffffffffffffffffffffffffffffffffff168152602001908152602001600020549050919050565b6000819050919050565b61045581610442565b82525050565b6000602082019050610470600083018461044c565b92915050565b600080fd5b600073ffffffffffffffffffffffffffffffffffffffff82169050919050565b60006104a68261047b565b9050919050565b6104b68161049b565b81146104c157600080fd5b50565b6000813590506104d3816104ad565b92915050565b6104e281610442565b81146104ed57600080fd5b50565b6000813590506104ff816104d9565b92915050565b6000806040838503121561051c5761051b610476565b5b600061052a858286016104c4565b925050602061053b858286016104f0565b9150509250929050565b60006020828403121561055b5761055a610476565b5b6000610569848285016104f0565b91505092915050565b61057b8161049b565b82525050565b60006020820190506105966000830184610572565b92915050565b6000602082840312156105b2576105b1610476565b5b60006105c0848285016104c4565b91505092915050565b6000815190506105d8816104d9565b92915050565b6000602082840312156105f4576105f3610476565b5b6000610602848285016105c9565b91505092915050565b600082825260208201905092915050565b7f6f776e657220696e646578206973206f7574206f6620626f756e640000000000600082015250565b6000610652601b8361060b565b915061065d8261061c565b602082019050919050565b6000602082019050818103600083015261068181610645565b9050919050565b7f4e487b7100000000000000000000000000000000000000000000000000000000600052603260045260246000fd5b7f676c6f62616c20696e646578206973206f7574206f6620626f756e6473000000600082015250565b60006106ed601d8361060b565b91506106f8826106b7565b602082019050919050565b6000602082019050818103600083015261071c816106e0565b9050919050565b7f4f776e657220717565727920666f72206e6f6e2d6578697374616e7420746f6b60008201527f656e000000000000000000000000000000000000000000000000000000000000602082015250565b600061077f60228361060b565b915061078a82610723565b604082019050919050565b600060208201905081810360008301526107ae81610772565b905091905056fea264697066735822122015608d31a825672757a60751bb13d9b94067cc5996de46fedd39314693b2d1a964736f6c634300080a0033",
  "immutableReferences": {},
  "source": "// SPDX-License-Identifier: MIT\npragma solidity ^0.8.0;\n\nimport './ERC721.sol';\n\ncontract ERC721Enumerable is ERC721 {\n\n    uint[] private _allTokens;\n\n    // mapping from tokenId to position in _allTokens array\n    mapping(uint => uint) private _allTokensIndex;\n\n    // mapping of owner to list of all owner token ids\n    mapping(address => uint[]) private _ownedTokens;\n\n    // mapping from token ID to index of the owner tokens list \n    mapping(uint => uint) private _ownedTokensIndex;\n\n    // @notice Count NFTs tracked by this contract\n    // @return A count of valid NFTs tracked by this contract, where each one of\n    ///  them has an assigned and queryable owner not equal to the zero address\n    // function totalSupply() external view returns (uint){\n    //     return _allTokens.length;\n    //     // Return the total Supply of _allTokens array\n    // }\n\n    // @notice Enumerate valid NFTs\n    // @dev Throws if `_index` >= `totalSupply()`.\n    // @param _index A counter less than `totalSupply()`\n    // @return The token identifier for the `_index`th NFT,\n    //  (sort order not specified)\n    //function tokenByIndex(uint _index) external view returns (uint);\n\n    // @notice Enumerate NFTs assigned to an owner\n    // @dev Throws if `_index` >= `balanceOf(_owner)` or if\n    //  `_owner` is the zero address, representing invalid NFTs.\n    // @param _owner An address where we are interested in NFTs owned by them\n    // @param _index A counter less than `balanceOf(_owner)`\n    // @return The token identifier for the `_index`th NFT assigned to `_owner`,\n    //   (sort order not specified)\n    //function tokenOfOwnerByIndex(address _owner, uint _index) external view returns (uint256);\n\n    function _mint(address to, uint tokenId) internal override(ERC721) {\n        super._mint(to, tokenId);\n        // 2 things we need:\n        // A. add tokens to the owner\n        // B. all tokens to our totalsuppy - to allTokens\n        //_addTokensToTotalSupply(tokenId);\n        _addTokensToAllTokenEnumeration(tokenId); \n        _addTokensToOwnerEnumeration(to, tokenId);\n    }\n\n    function _addTokensToAllTokenEnumeration(uint tokenId) private{\n        _allTokensIndex[tokenId] = _allTokens.length;\n        _allTokens.push();\n    }\n\n    function _addTokensToOwnerEnumeration(address to, uint tokenId) private {\n        // 1. add address and token id to the _ownedTokens\n        // 2. ownedTokensIndex tokenId set to address of ownedTokens position\n        // 3. we want to execute the function with minting\n        _ownedTokensIndex[tokenId] = _ownedTokens[to].length;\n        _ownedTokens[to].push(tokenId);\n\n    }\n\n    // A helper function that returns tokenByIndex\n    function tokenByIndex(uint index) public view returns(uint){\n        require(index < totalSupply(), 'global index is out of bounds');\n        return _allTokens[index];\n    }\n\n    // A function that returns tokenOfOwnerByIndex\n    function tokenOfOwnerByIndex(address owner, uint index) public view returns(uint){\n        require(index < this.balanceOf(owner), 'owner index is out of bound');\n        return _ownedTokens[owner][index];\n    }\n\n    // Replace this function \"_addTokensToTotalSupply\" with _addTokensToAllTokenEnumeration\n    // function _addTokensToTotalSupply(uint tokenId) private {\n    //     _allTokens.push(tokenId);\n    // }\n\n    function totalSupply() public view returns(uint){\n        return _allTokens.length;\n        // Return the total Supply of _allTokens array\n    }\n}",
  "sourcePath": "/Users/kady/Desktop/nftmarketplace/src/contracts/ERC721Enumerable.sol",
  "compiler": {
    "name": "solc",
    "version": "0.8.10+commit.fc410830.Emscripten.clang"
  },
  "schemaVersion": "3.4.3",
  "updatedAt": "2021-12-02T15:07:42.145Z",
  "devdoc": {
    "kind": "dev",
    "methods": {
      "balanceOf(address)": {
        "details": "NFTs assigned to the zero address are considered invalid, and this  function throws for queries about the zero address.",
        "params": {
          "_owner": "An address for whom to query the balance"
        },
        "returns": {
          "_0": "The number of NFTs owned by `_owner`, possibly zero"
        }
      },
      "ownerOf(uint256)": {
        "details": "NFTs assigned to zero address are considered invalid, and queries  about them do throw.",
        "params": {
          "_tokenId": "The identifier for an NFT"
        },
        "returns": {
          "_0": "The address of the owner of the NFT"
        }
      }
    },
    "version": 1
  },
  "userdoc": {
    "kind": "user",
    "methods": {
      "balanceOf(address)": {
        "notice": "Count all NFTs assigned to an owner"
      }
    },
    "version": 1
  }
}